:1000000080C0000095C0000093C0000091C00000B7
:100010008FC000008DC000008BC0000089C00000B0
:1000200087C0000085C0000083C0000081C00000C0
:100030007FC000007DC000007BC0000079C00000D0
:1000400077C0000075C0000073C0000071C00000E0
:100050006FC000006DC000006BC0000069C00000F0
:1000600067C0000065C0000063C0000061C0000000
:100070005FC000005DC000005BC0000059C0000010
:1000800057C0000055C0000053C0000051C0000020
:100090004FC000004DC000004BC0000049C0000030
:1000A00047C0000045C0000043C0000041C0000040
:1000B0003FC000003DC000003BC0000039C0000050
:1000C00037C0000035C0000033C0000031C0000060
:1000D0002FC000002DC000002BC0000029C0000070
:1000E00027C000001B01210127012D013301390127
:1000F0003F0145014B01560161016C01770182010D
:100100008D0111241FBECFEFD1E2DEBFCDBF00E0D5
:100110000CBF12E0A0E0B2E0E4ECF6E000E00BBFC0
:1001200002C007900D92A230B107D9F70DD1C8C215
:1001300067CF81B18E6181B9089A0D9A9C9AEAE0E5
:10014000F1E080818E608083E7E0F1E08081808350
:1001500080B380BB089580E480937C0087E880931F
:100160007A000895109A0895882311F0159A089539
:1001700015980895853010F0149A01C014988430B1
:1001800010F0139A01C01398833010F0129A01C036
:100190001298823008F0119A8823A9F08091000209
:1001A00090910102009731F00197909301028093A2
:1001B00000020895019A059A84E690E09093010266
:1001C00080930002089511980895882331F0EBE0A0
:1001D000F1E08081886080830895EBE0F1E0808128
:1001E000877F80830895882311F0A49A0895A498A6
:1001F0000895882331F0EBE0F1E080818260808314
:100200000895EBE0F1E080818D7F808308958091F7
:1002100009018470089520E420937C0010927B00F3
:1002200001978F30910508F082C0FC018827EE58B5
:10023000FF4F8F4F3DC2ECE7F0E08081816080830B
:1002400076C0ECE7F0E080818260808370C0ECE7EC
:10025000F0E08081836080836AC0ECE7F0E0808119
:100260008460808364C0ECE7F0E0808185608083F7
:100270005EC0ECE7F0E080818660808358C0ECE7E8
:10028000F0E080818760808352C0EBE7F0E08081FE
:10029000886080834CC0EBE7F0E0808188608083D9
:1002A000ECE7F0E080818160808341C0EBE7F0E023
:1002B000808188608083ECE7F0E0808182608083C9
:1002C00036C0EBE7F0E0808188608083ECE7F0E007
:1002D0008081836080832BC0EBE7F0E080818860C1
:1002E0008083ECE7F0E080818460808320C0EBE7CE
:1002F000F0E0808188608083ECE7F0E080818560B9
:10030000808315C0EBE7F0E0808188608083ECE7B4
:10031000F0E08081866080830AC0EBE7F0E08081B6
:1003200088608083ECE7F0E0808187608083EAE783
:10033000F0E0808180648083808186FDFDCF8091A4
:100340007800909179000895CF93DF931F921F92C8
:10035000CDB7DEB7EEDEFFDE89819A81892B99F475
:1003600056DF90E09A83898389819A81892B21F0D5
:10037000F9DE81E02ADFF0CF80E035DF80E039DF91
:1003800080E023DFE9CF8CE090E045DF895C92409C
:10039000BC01990F880B990B9CD022E538EB46E8FD
:1003A00050E4FBD063D0643A83E078076CF085E0DA
:1003B000E1DE81E0D9DE80E016DF80E01ADF1A821C
:1003C000198280E002DF4BC0613283E078074CF095
:1003D00085E0D0DE80E0C8DE81E005DF81E009DF76
:1003E0003EC0693582E078074CF084E0C3DE80E0EF
:1003F000BBDE81E0F8DE81E0FCDE31C0613981E006
:1004000078074CF083E0B6DE80E0AEDE81E0EBDE24
:1004100081E0EFDE24C0663871054CF082E0AADE90
:1004200080E0A2DE81E0DFDE81E0E3DE18C063333E
:1004300071054CF081E09EDE80E0D5DE80E0D9DE03
:1004400081E092DE0CC080E095DE80E08DDE80E011
:10045000CADE80E0CEDE1A82198280E0B6DE89E054
:1004600090E0D9DE8AE090E0D6DE76CF04D06894C2
:10047000B1118DC0089570D088F09F5790F0B92FBA
:100480009927B751A0F0D1F0660F771F881F991FE9
:100490001AF0BA95C9F712C0B13081F077D0B1E047
:1004A000089574C0672F782F8827B85F39F0B93F57
:1004B000CCF3869577956795B395D9F73EF49095EB
:1004C0008095709561957F4F8F4F9F4F0895E89469
:1004D00009C097FB3EF490958095709561957F4F8C
:1004E0008F4F9F4F9923A9F0F92F96E9BB2793953A
:1004F000F695879577956795B795F111F8CFFAF44A
:10050000BB0F11F460FF1BC06F5F7F4F8F4F9F4F7A
:1005100016C0882311F096E911C0772321F09EE8D8
:10052000872F762F05C0662371F096E8862F70E03E
:1005300060E02AF09A95660F771F881FDAF7880F18
:100540009695879597F9089557FD9058440F551F34
:1005500059F05F3F71F04795880F97FB991F61F045
:100560009F3F79F087950895121613061406551FBC
:10057000F2CF4695F1DF08C0161617061806991F28
:10058000F1CF86957105610508940895E894BB271D
:1005900066277727CB0197F908950BD078C069D0EB
:1005A00028F06ED018F0952309F05AC05FC01124CE
:1005B000EECFCADFA0F3959FD1F3950F50E0551F02
:1005C000629FF001729FBB27F00DB11D639FAA27A8
:1005D000F00DB11DAA1F649F6627B00DA11D661FF7
:1005E000829F2227B00DA11D621F739FB00DA11D18
:1005F000621F839FA00D611D221F749F3327A00DD2
:10060000611D231F849F600D211D822F762F6A2F6D
:1006100011249F5750408AF0E1F088234AF0EE0FF2
:10062000FF1FBB1F661F771F881F91505040A9F7FF
:100630009E3F510570F014C0AACF5F3FECF3983E87
:10064000DCF3869577956795B795F795E7959F5F66
:10065000C1F7FE2B880F911D9695879597F9089500
:1006600097F99F6780E870E060E008959FEF80EC65
:10067000089500240A941616170618060906089508
:1006800000240A9412161306140605060895092E6E
:100690000394000C11F4882352F0BB0F40F4BF2BDD
:1006A00011F460FF04C06F5F7F4F8F4F9F4F08951D
:1006B000EE0FFF1F881F8BBF0790F691E02D199456
:0406C000F894FFCFDC
:0206C4006400D0
:00000001FF
