:1000000080C0000095C0000093C0000091C00000B7
:100010008FC000008DC000008BC0000089C00000B0
:1000200087C0000085C0000083C0000081C00000C0
:100030007FC000007DC000007BC0000079C00000D0
:1000400077C0000075C0000073C0000071C00000E0
:100050006FC000006DC000006BC0000069C00000F0
:1000600067C0000065C0000063C0000061C0000000
:100070005FC000005DC000005BC0000059C0000010
:1000800057C0000055C0000053C0000051C0000020
:100090004FC000004DC000004BC0000049C0000030
:1000A00047C0000045C0000043C0000041C0000040
:1000B0003FC000003DC000003BC0000039C0000050
:1000C00037C0000035C0000033C0000031C0000060
:1000D0002FC000002DC000002BC0000029C0000070
:1000E00027C00000130119011F0125012B01310157
:1000F00037013D0143014E01590164016F017A014D
:10010000850111241FBECFEFD1E2DEBFCDBF00E0DD
:100110000CBF12E0A0E0B2E0EAEBF6E000E00BBFBB
:1001200002C007900D92A230B107D9F705D1C3C222
:1001300067CF81B18E6181B9089A0D9A9C9AEAE0E5
:10014000F1E080818E608083E7E0F1E08081808350
:1001500080B380BB089580E480937C0087E880931F
:100160007A000895109A0895843010F0149A01C00E
:100170001498833010F0139A01C01398823010F055
:10018000129A01C01298882319F0119A15980895AF
:100190008091000290910102009731F001979093B5
:1001A0000102809300020895019A059A8AE090E086
:1001B00090930102809300020895882331F0EBE0D0
:1001C000F1E08081886080830895EBE0F1E0808138
:1001D000877F80830895882311F0A49A0895A498B6
:1001E0000895882331F0EBE0F1E080818260808324
:1001F0000895EBE0F1E080818D7F80830895809108
:1002000009018470089520E420937C0010927B0003
:1002100001978F30910508F082C0FC018827EE58C5
:10022000FF4F8F4F40C2ECE7F0E080818160808318
:1002300076C0ECE7F0E080818260808370C0ECE7FC
:10024000F0E08081836080836AC0ECE7F0E0808129
:100250008460808364C0ECE7F0E080818560808307
:100260005EC0ECE7F0E080818660808358C0ECE7F8
:10027000F0E080818760808352C0EBE7F0E080810E
:10028000886080834CC0EBE7F0E0808188608083E9
:10029000ECE7F0E080818160808341C0EBE7F0E033
:1002A000808188608083ECE7F0E0808182608083D9
:1002B00036C0EBE7F0E0808188608083ECE7F0E017
:1002C0008081836080832BC0EBE7F0E080818860D1
:1002D0008083ECE7F0E080818460808320C0EBE7DE
:1002E000F0E0808188608083ECE7F0E080818560C9
:1002F000808315C0EBE7F0E0808188608083ECE7C5
:10030000F0E08081866080830AC0EBE7F0E08081C6
:1003100088608083ECE7F0E0808187608083EAE793
:10032000F0E0808180648083808186FDFDCF8091B4
:100330007800909179000895CF93DF9300D01F92B9
:10034000CDB7DEB7F6DE07DF89819A81892BC9F444
:1003500056DF90E09A83898389819A81892B51F0B5
:100360008CE090E050DF893F924024F0FBDE81E09A
:1003700024DFEACF80E02FDF80E033DF80E01DDF85
:10038000E3CF8CE090E03FDF8D5C9240BC01990FA1
:10039000880B990B99D02FE832EC45E550E4F8D062
:1003A00060D0653883E078073CF084E0DDDE81E0F2
:1003B00012DF81E016DF34C0693522E072073CF0BD
:1003C00083E0D2DE81E007DF81E00BDF29C06F35FB
:1003D00081E078073CF082E0C7DE81E0FCDE81E06E
:1003E00000DF1EC0673971053CF081E0BDDE81E0B1
:1003F000F2DE81E0F6DE14C0693271053CF080E087
:10040000B3DE80E0E8DE80E0ECDE0AC080E0ACDE57
:1004100080E0E1DE80E0E5DE1A82198280E0CDDE58
:1004200081E090E0F0DE82E090E0EDDE83E090E0BD
:10043000EADE84E090E0E7DE85E090E0E4DE86E05E
:1004400090E0E1DE87E090E0DEDE88E090E0DBDE59
:1004500089E090E0D8DE8AE090E0D5DE8B819C8157
:1004600073CF04D06894B1118DC0089570D088F016
:100470009F5790F0B92F9927B751A0F0D1F0660F90
:10048000771F881F991F1AF0BA95C9F712C0B130AB
:1004900081F077D0B1E0089574C0672F782F882756
:1004A000B85F39F0B93FCCF3869577956795B395EA
:1004B000D9F73EF490958095709561957F4F8F4F59
:1004C0009F4F0895E89409C097FB3EF4909580955E
:1004D000709561957F4F8F4F9F4F9923A9F0F92F0A
:1004E00096E9BB279395F695879577956795B79588
:1004F000F111F8CFFAF4BB0F11F460FF1BC06F5F6E
:100500007F4F8F4F9F4F16C0882311F096E911C07F
:10051000772321F09EE8872F762F05C0662371F0A0
:1005200096E8862F70E060E02AF09A95660F771FB4
:10053000881FDAF7880F9695879597F9089557FDE4
:100540009058440F551F59F05F3F71F04795880F41
:1005500097FB991F61F09F3F79F0879508951216D8
:1005600013061406551FF2CF4695F1DF08C0161684
:1005700017061806991FF1CF869571056105089435
:100580000895E894BB2766277727CB0197F908954C
:100590000BD078C069D028F06ED018F0952309F000
:1005A0005AC05FC01124EECFCADFA0F3959FD1F3EC
:1005B000950F50E0551F629FF001729FBB27F00D11
:1005C000B11D639FAA27F00DB11DAA1F649F662766
:1005D000B00DA11D661F829F2227B00DA11D621FB5
:1005E000739FB00DA11D621F839FA00D611D221F6F
:1005F000749F3327A00D611D231F849F600D211D53
:10060000822F762F6A2F11249F5750408AF0E1F0F5
:1006100088234AF0EE0FFF1FBB1F661F771F881F3E
:1006200091505040A9F79E3F510570F014C0AACFD9
:100630005F3FECF3983EDCF3869577956795B79529
:10064000F795E7959F5FC1F7FE2B880F911D969553
:10065000879597F9089597F99F6780E870E060E0C3
:1006600008959FEF80EC089500240A94161617064B
:1006700018060906089500240A9412161306140693
:1006800005060895092E0394000C11F4882352F0F6
:10069000BB0F40F4BF2B11F460FF04C06F5F7F4FAE
:1006A0008F4F9F4F0895EE0FFF1F881F8BBF07903E
:0A06B000F691E02D1994F894FFCFA5
:0206BA000A0034
:00000001FF
